:100A5D000A0E6F7F077D6D664F5B063F020C00002F
:040AC900AF0DAE0CB3
:0C0ACD00D2A0C2A1740E2FF8E6F5902212
:03000B00020800E8
:10080000C0E0C0F0C083C082C0D075D000C000C0BE
:0D08100001C002C003C004C005C006C0073F
:10081D00758CFC758A180509E50970020508050B2C
:10082D00E50B7002050AE509B4E82CE508B40327C9
:10083D00750800750900750C00750D00120AC97F49
:10084D00E87E03120AB4050DE50D7002050CC39484
:10085D000AE50C940040E5E50B64E87004E50A64D4
:10086D00036003020929F50AF50BD2A4C2A2F50C07
:10087D00F50D120AC97FE87E03120AB4050DE50DC8
:10088D007002050CC39407E50C940040E5D2A2C29A
:10089D00A37F077E00120ACD7FE87E03120AB4D231
:1008AD00A37F087E00120ACD7FE87E03120AB4C230
:1008BD00A37F097E00120ACD7FE87E03120AB4D20F
:1008CD00A3C2A4D2A7C2A5750C00750D00120AC94A
:1008DD007FE87E03120AB4050DE50D7002050CC309
:1008ED009407E50C940040E5D2A5C2A67F077E00D3
:1008FD00120ACD7FE87E03120AB4D2A67F087E00CD
:10090D00120ACD7FE87E03120AB4C2A67F097E00CB
:0C091D00120ACD7FE87E03120AB4D2A6B5
:10092900D007D006D005D004D003D002D001D00022
:0B093900D0D0D082D083D0F0D0E032CC
:100AD900120A9DC2A4C2A77F0A7E00120A2580F3CA
:100AB400EF1FAC0670011E4C600A7D027CEFDCFE69
:040AC400DDFC80ECE9
:010AC800220B
:100A9D005389F0438901C28DD28C758CFC758A18EF
:070AAD00D2A9D2AFC2B922A9
:100A6D0010183F065B4F666D7D077F6F777C395E93
:020A7D0079718D
:100A8000E4FFFE0FBF00010EEF64644E70F5E4FF5B
:0C0A9000FE0FBF00010EEF640A4E70F56F
:010A9C002237
:100A2500AB07AA06E4F590C2A1D2A0FC7D0AAF03EC
:100A3500AE021209D074182DF8E6F590120A80D28C
:100A4500A1C2A0AE02AF037C007D0A1209D07418C2
:080A55002FF8E6F590020A807B
:03000000020944AE
:0C094400787FE4F6D8FD75812702098B4E
:1009D000BC000BBE0029EF8DF084FFADF022E4CC0B
:1009E000F875F008EF2FFFEE33FEEC33FCEE9DECD4
:1009F000984005FCEE9DFE0FD5F0E9E4CEFD22ED1A
:100A0000F8F5F0EE8420D21CFEADF075F008EF2F63
:100A1000FFED33FD4007985006D5F0F222C398FD54
:050A20000FD5F0EA22F1
:10095000020AD9E493A3F8E493A34003F68001F2DA
:1009600008DFF48029E493A3F85407240CC8C333A8
:10097000C4540F4420C8834004F456800146F6DF77
:10098000E4800B0102040810204080900A5DE47EA0
:10099000019360BCA3FF543F30E509541FFEE4936C
:1009A000A360010ECF54C025E060A840B8E493A333
:1009B000FAE493A3F8E493A3C8C582C8CAC583CA5E
:1009C000F0A3C8C582C8CAC583CADFE9DEE780BE16
:010A7F000076
:00000001FF
