:0808E8000216000002140000DA
:03000B0002088C5C
:04088C00C0E0C0D038
:10089000758CFC758A180513E51370020512B4E80F
:1008A00013E512B4030E7512007513000515E51556
:0408B00070020514B9
:0508B400D0D0D0E032BD
:1008B9001208D1E515640A45147004F514F515AF4D
:0808C90015AE1412091280EBB8
:1008D1005389F0438901C28DD28C758CFC758A18BD
:0708E100D2A9D2AFC2B92277
:0C08F0000A083F065B4F666D7D077F6FB6
:0809120074082FF8E6F5A0229D
:1008FD00EF1FAC0670011E4C600A7D027CEFDCFE22
:04090D00DDFC80ECA1
:0109110022C3
:03000000020800F3
:0C080000787FE4F6D8FD758117020847E8
:10080C000208B9E493A3F8E493A34003F68001F241
:10081C0008DFF48029E493A3F85407240CC8C333ED
:10082C00C4540F4420C8834004F456800146F6DFBC
:10083C00E4800B01020408102040809008E8E47E5C
:10084C00019360BCA3FF543F30E509541FFEE493B1
:10085C00A360010ECF54C025E060A840B8E493A378
:10086C00FAE493A3F8E493A3C8C582C8CAC583CAA3
:10087C00F0A3C8C582C8CAC583CADFE9DEE780BE5B
:0108FC0000FB
:00000001FF
