:030000000208945F
:0C089400787FE4F6D8FD75810F020800A3
:04087C007F147E0067
:10088000EF4E600F7D027CEFDCFEDDFCEF1F70F0B1
:030890001E80EDDA
:010893002242
:1008000020903812087C3090FD12087C7508007525
:100810000901E509AE08A80D088005C333CE33CE23
:10082000D8F9F50B8E0AF4F5A0050DE50D7002055B
:100830000C6408450C7004F50CF50D2091C21208EB
:100840007C3091FD12087C750800750901E50D45A5
:100850000C7007F50C750D078008E50D150D70027D
:10086000150CE509AE08A80D088005C333CE33CEBC
:0C087000D8F9F50F8E0EF4F5A002080078
:00000001FF
