:100992000A1C6F7F077D6D664F5B063F021A0000DF
:0C09FE00D2A0C2A1741C2FF8E6F59022D4
:03000B0002088C5C
:10088C00C0E0C0F0C083C082C0D075D000C000C032
:0D089C0001C002C003C004C005C006C007B3
:1008A900758CFC758A180519E51970020518B4E8E4
:1008B90030E518B4032B751800751900751A007501
:1008C9001B00AF1BAE1A1209FE7FE87E031209E96D
:1008D900051BE51B7002051AC3940AE51A9400402A
:0108E900E12D
:1008EA00D007D006D005D004D003D002D001D00062
:0B08FA00D0D0D082D083D0F0D0E0320C
:0C0A0A001209D27F0A7E0012095A80F700
:1009D2005389F0438901C28DD28C758CFC758A18BB
:0709E200D2A9D2AFC2B92275
:1009E900EF1FAC0670011E4C600A7D027CEFDCFE35
:0409F900DDFC80ECB5
:0109FD0022D7
:1009A20010083F065B4F666D7D077F6F777C395E6F
:0209B200797159
:1009B500E4FFFE0FBF00010EEF64644E70F5E4FF27
:0C09C500FE0FBF00010EEF640A4E70F53B
:0109D1002203
:10095A00AB07AA06E4F590C2A1D2A0FC7D0AAF03B8
:10096A00AE0212090574082DF8E6F5901209B5D2FF
:10097A00A1C2A0AE02AF037C007D0A120905740869
:08098A002FF8E6F5900209B513
:03000000020800F3
:0C080000787FE4F6D8FD758125020847DA
:10090500BC000BBE0029EF8DF084FFADF022E4CCD6
:10091500F875F008EF2FFFEE33FEEC33FCEE9DEC9F
:10092500984005FCEE9DFE0FD5F0E9E4CEFD22EDE5
:10093500F8F5F0EE8420D21CFEADF075F008EF2F2F
:10094500FFED33FD4007985006D5F0F222C398FD20
:050955000FD5F0EA22BD
:10080C00020A0AE493A3F8E493A34003F68001F2EE
:10081C0008DFF48029E493A3F85407240CC8C333ED
:10082C00C4540F4420C8834004F456800146F6DFBC
:10083C00E4800B0102040810204080900992E47EB1
:10084C00019360BCA3FF543F30E509541FFEE493B1
:10085C00A360010ECF54C025E060A840B8E493A378
:10086C00FAE493A3F8E493A3C8C582C8CAC583CAA3
:10087C00F0A3C8C582C8CAC583CADFE9DEE780BE5B
:0109B4000042
:00000001FF
