:0308C00001120022
:03000B0002088C5C
:10088C00C0E0C0D00512E512B40A03751200D0D036
:03089C00D0E03277
:1008B0007F027E0012089FAF127E001208D080F7E0
:10089F00758906EFF404F58CF58AD2A9D2AFD28C04
:0108AF002226
:0C08C3000A083F065B4F666D7D077F6FE3
:0808D00074082FF8E6F5A022E0
:03000000020800F3
:0C080000787FE4F6D8FD758112020847ED
:10080C000208B0E493A3F8E493A34003F68001F24A
:10081C0008DFF48029E493A3F85407240CC8C333ED
:10082C00C4540F4420C8834004F456800146F6DFBC
:10083C00E4800B01020408102040809008C0E47E84
:10084C00019360BCA3FF543F30E509541FFEE493B1
:10085C00A360010ECF54C025E060A840B8E493A378
:10086C00FAE493A3F8E493A3C8C582C8CAC583CAA3
:10087C00F0A3C8C582C8CAC583CADFE9DEE780BE5B
:0108CF000028
:00000001FF
