:0C0943000A083F065B4F666D7D077F6F62
:0D0936007D0A7C007F027E0012088C80F399
:10091700D3EF9400EE94004015E4FCFD0DBD0001FB
:0E0927000CED647D4C70F5EF1F70E51E80E254
:01093500229F
:08088C008E128F138C148D15E0
:10089400E4F516F517C3E5179513E516951250728E
:1008A400E4F518F519C3E5199515E518951450588C
:1008B400E4F51AF51BE4FBFAEA701DEB14600D0471
:1008C4007016C2A0D2A1740825178008D2A0C2A1B4
:1008D40074082519F8E6F5907F1D7E00120917E4C7
:1008E400F5900BBB00010AEB64024A70CB051BE5D3
:1008F4001B7002051AC39411E51A940040B7051938
:10090400E51970A10518809D0517E5177087051670
:020914008083DE
:0109160022BE
:03000000020800F3
:0C080000787FE4F6D8FD75811B020847E4
:10080C00020936E493A3F8E493A34003F68001F2C3
:10081C0008DFF48029E493A3F85407240CC8C333ED
:10082C00C4540F4420C8834004F456800146F6DFBC
:10083C00E4800B0102040810204080900943E47E00
:10084C00019360BCA3FF543F30E509541FFEE493B1
:10085C00A360010ECF54C025E060A840B8E493A378
:10086C00FAE493A3F8E493A3C8C582C8CAC583CAA3
:10087C00F0A3C8C582C8CAC583CADFE9DEE780BE5B
:01094F0000A7
:00000001FF
