:10088C0010093F065B4F666D7D077F6F777C395E85
:02089C00797170
:10089F00758920758DF3758BFDD28ED29FD29CD228
:0208AF009E2287
:0808BB008F993099FDC29922CA
:0A08B10012089F7F051208BB80FEAD
:03000000020800F3
:0C080000787FE4F6D8FD75811A020847E5
:10080C000208B1E493A3F8E493A34003F68001F249
:10081C0008DFF48029E493A3F85407240CC8C333ED
:10082C00C4540F4420C8834004F456800146F6DFBC
:10083C00E4800B010204081020408090088CE47EB8
:10084C00019360BCA3FF543F30E509541FFEE493B1
:10085C00A360010ECF54C025E060A840B8E493A378
:10086C00FAE493A3F8E493A3C8C582C8CAC583CAA3
:10087C00F0A3C8C582C8CAC583CADFE9DEE780BE5B
:01089E000059
:00000001FF
