:1008A20001080010093F065B4F666D7D077F6F7779
:0508B2007C395E797144
:10088C00758920758DF3758BFDD28ED29FD29CD23B
:06089C009ED2AFD2AC2297
:1008B80012088CE508B401FB74092519F8E6F580DF
:0508C800E4F5A080EE44
:030023000208CD03
:0C08CD00309808C298859919750801320E
:03000000020800F3
:0C080000787FE4F6D8FD75811A020847E5
:10080C000208B8E493A3F8E493A34003F68001F242
:10081C0008DFF48029E493A3F85407240CC8C333ED
:10082C00C4540F4420C8834004F456800146F6DFBC
:10083C00E4800B01020408102040809008A2E47EA2
:10084C00019360BCA3FF543F30E509541FFEE493B1
:10085C00A360010ECF54C025E060A840B8E493A378
:10086C00FAE493A3F8E493A3C8C582C8CAC583CAA3
:10087C00F0A3C8C582C8CAC583CADFE9DEE780BE5B
:0108B7000040
:00000001FF
