:0F0968000108630A093F065B4F666D7D077F6FCD
:0F09780012095212088CAF087E0012099080F409
:0809900074092FF8E6F5A0221E
:10093200E4FDFCC3ED9FEC9E5015E4FAFB0BBB00FB
:0F094200010AEB64784A70F50DBD00010C80E4EA
:010951002283
:10088C00E4FFF513F97590F0E59064F060157F14B2
:10089C007E00120932AF9075900FE590640F6003E3
:1008AC00859013E5132FF912090C08FB7D08E77EE0
:1008BC0008F6BD08E2BE0905DB08F1DD08DDDE093E
:1008CC0000EB08ECED08D8EE0000090BE4F508800D
:1008DC002B75080180267508028021750803801C81
:1008EC0075080480177508058012750806800D754B
:0F08FC0008078008750808800375080912098726
:01090B0022C9
:090987008508993099FDC29922FE
:10095200759850758920E4F587758DF3758BF3D200
:06096200ACD2AFD28E22E0
:03000000020800F3
:0C080000787FE4F6D8FD758113020847EC
:10090C00D083D082F8E4937012740193700DA3A37A
:10091C0093F8740193F5828883E47374029368608E
:06092C00EFA3A3A380DF8E
:10080C00020978E493A3F8E493A34003F68001F281
:10081C0008DFF48029E493A3F85407240CC8C333ED
:10082C00C4540F4420C8834004F456800146F6DFBC
:10083C00E4800B0102040810204080900968E47EDB
:10084C00019360BCA3FF543F30E509541FFEE493B1
:10085C00A360010ECF54C025E060A840B8E493A378
:10086C00FAE493A3F8E493A3C8C582C8CAC583CAA3
:10087C00F0A3C8C582C8CAC583CADFE9DEE780BE5B
:01097700007F
:00000001FF
