:0300000002089D56
:0C089D00787FE4F6D8FD7581130208E4B2
:03096F000112630F
:10094F00E4FDFCC3ED9FEC9E5015E4FAFB0BBB00DE
:0F095F00010AEB64784A70F50DBD00010C80E4CD
:01096E002266
:10080000E4FFF513F97590F0E59064F060157F143E
:100810007E0012094FAF9075900FE590640F600352
:10082000859013E5132F12092908997708897B0809
:10083000797D08697E0895B70885BB0875BD086590
:10084000BE0891D70881DB0871DD0861DE088DE7FD
:10085000087DEB086DED085DEE0000089CE4F512E4
:1008600022751201227512022275120322751204DA
:1008700022751205227512062275120722751208BA
:10088000227512092275120A2275120B2275120C9A
:0C0890002275120D2275120E2275120F37
:01089C002239
:0C097F00120800AF127E0012098B80F4F9
:0C0972000A083F065B4F666D7D077F6F33
:08098B0074082FF8E6F5A02224
:1008A90002097FE493A3F8E493A34003F68001F2DD
:1008B90008DFF48029E493A3F85407240CC8C33350
:1008C900C4540F4420C8834004F456800146F6DF1F
:1008D900E4800B010204081020408090096FE47E37
:1008E900019360BCA3FF543F30E509541FFEE49314
:1008F900A360010ECF54C025E060A840B8E493A3DB
:10090900FAE493A3F8E493A3C8C582C8CAC583CA05
:10091900F0A3C8C582C8CAC583CADFE9DEE780BEBD
:01097E000078
:10092900D083D082F8E4937012740193700DA3A35D
:1009390093F8740193F5828883E473740293686071
:06094900EFA3A3A380DF71
:00000001FF
