:1009360010083F065B4F666D7D077F6F777C395EDB
:020946007971C5
:10091900E4FFFE0FBF00010EEF64644E70F5E4FFC3
:0C092900FE0FBF00010EEF640A4E70F5D7
:01093500229F
:1008E100AB07AA06E4F590C2A1D2A0FC7D0AAF0332
:1008F100AE0212088C74082DF8E6F590120919D28F
:10090100A1C2A0AE02AF037C007D0A12088C74085C
:080911002FF8E6F59002091928
:090949007F0A7E001208E180F72C
:03000000020800F3
:0C080000787FE4F6D8FD758117020847E8
:10088C00BC000BBE0029EF8DF084FFADF022E4CC50
:10089C00F875F008EF2FFFEE33FEEC33FCEE9DEC19
:1008AC00984005FCEE9DFE0FD5F0E9E4CEFD22ED5F
:1008BC00F8F5F0EE8420D21CFEADF075F008EF2FA9
:1008CC00FFED33FD4007985006D5F0F222C398FD9A
:0508DC000FD5F0EA2237
:10080C00020949E493A3F8E493A34003F68001F2B0
:10081C0008DFF48029E493A3F85407240CC8C333ED
:10082C00C4540F4420C8834004F456800146F6DFBC
:10083C00E4800B0102040810204080900936E47E0D
:10084C00019360BCA3FF543F30E509541FFEE493B1
:10085C00A360010ECF54C025E060A840B8E493A378
:10086C00FAE493A3F8E493A3C8C582C8CAC583CAA3
:10087C00F0A3C8C582C8CAC583CADFE9DEE780BE5B
:0109480000AE
:00000001FF
