:07092700011E00021F000089
:03000B0002088C5C
:04088C00C0E0C0D038
:10089000758CFC758A18051BE51B7002051A051D71
:1008A000E51D7002051CE51BB4E80DE51AB403084C
:1008B000751A00751B00051EE51DB41013E51CB468
:1008C000270E751C00751D000520E5207002051F10
:0508D000D0D0D0E032A1
:10090000120945E51EB40A03E4F51EE52064084516
:100910001F7004F51FF520AF20AE1F120964AF1E33
:070920007E0012095C80DC7F
:0C092E000A083F065B4F666D7D077F6F77
:08095C0074082FF8E6F5A02253
:0A093A000812FEFDFBF7EFDFBF7FA0
:0809640074122FF8E6F5B02231
:1008D500E4F521F522F521F522AF22AE2112095CBE
:1008E5007FF47E011200000522E52270020521C376
:0A08F500940AE5216480948040DF3E
:0108FF0022D6
:100945005389F0438901C28DD28C758CFC758A1848
:07095500D2A9D2AFC2B92202
:03000000020800F3
:0C080000787FE4F6D8FD758122020847DD
:10080C00020900E493A3F8E493A34003F68001F2F9
:10081C0008DFF48029E493A3F85407240CC8C333ED
:10082C00C4540F4420C8834004F456800146F6DFBC
:10083C00E4800B0102040810204080900927E47E1C
:10084C00019360BCA3FF543F30E509541FFEE493B1
:10085C00A360010ECF54C025E060A840B8E493A378
:10086C00FAE493A3F8E493A3C8C582C8CAC583CAA3
:10087C00F0A3C8C582C8CAC583CADFE9DEE780BE5B
:0109440000B2
:00000001FF
