:100A1000010863010963010A62010B000816010263
:100A20000408102040800A0CC0F9A4B0999282F802
:020A30008090B4
:10098900120A4C12088C7F067E00120A62E4FFFEEE
:10099900120A6A120A337F077E00120A62AF097EC1
:1009A90000120A6A120A33E4FFFE120A62E4FFFE29
:1009B900120A6A120A337F017E00120A62AF0A7EA6
:1009C90000120A6A120A33E50AB5090875A0FF750B
:1009D900808880F8E50BB412AA75A0FF75808E8017
:0109E900F815
:100A4C00759850758920E4F587758DF3758BF3D205
:060A5C00ACD2AFD28E22E5
:03002300020910BF
:10091000C0E0C083C082C0D075D000C000859908F7
:10092000C298E508B40A005055900930F828287399
:1009300002094E02095302095802095D02096202C6
:10094000096702096C02097102097602097B750ABE
:1009500000802B750A018026750A028021750A0322
:10096000801C750A048017750A058012750A0680B6
:100970000D750A078008750A088003750A09D000FA
:09098000D0D0D082D083D0E03247
:080A620074162FF8E6F5A0223E
:080A6A00740C2FF8E6F5802260
:040A33007F017E00C1
:100A3700EF1FAC0670011E4C600A7D027CEFDCFEE6
:040A4700DDFC80EC66
:010A4B002288
:10088C00E4FFFBFA7590F0E59064F060147F147E41
:10089C0000120A37AF9075900FE590640F6002ABB1
:1008AC0090EF2B1209EA08FE7D08E67E08F8BD08D9
:1008BC00E0BE090ADB08F2DD08DADE0904EB08EC1D
:1008CC00ED08D4EE0000090FE4F509050B227509BB
:1008DC0001050B22750902050B22750903050B2274
:1008EC00750904050B22750905050B22750906050A
:1008FC000B22750907050B22750908050B227509D2
:03090C0009050BCF
:01090F0022C5
:03000000020800F3
:0C080000787FE4F6D8FD75811D020847E2
:1009EA00D083D082F8E4937012740193700DA3A39C
:1009FA0093F8740193F5828883E4737402936860B0
:060A0A00EFA3A3A380DFAF
:10080C00020989E493A3F8E493A34003F68001F270
:10081C0008DFF48029E493A3F85407240CC8C333ED
:10082C00C4540F4420C8834004F456800146F6DFBC
:10083C00E4800B0102040810204080900A10E47E32
:10084C00019360BCA3FF543F30E509541FFEE493B1
:10085C00A360010ECF54C025E060A840B8E493A378
:10086C00FAE493A3F8E493A3C8C582C8CAC583CAA3
:10087C00F0A3C8C582C8CAC583CADFE9DEE780BE5B
:010A320000C3
:00000001FF
