:03000000020800F3
:0C080000787FE4F6D8FD758119020847E6
:1008C1000808767938383F006D7F0810000102036F
:0408D100040506070D
:1008D600EF4E600F7D027CEFDCFEDDFCEF1F70F05B
:0308E6001E80ED84
:0108E90022EC
:10088C00E4F518F519F518F519AF1974102FF8E6E9
:10089C00F5B074082FF8E6F5A07F057E001208D697
:1008AC000519E51970020518C39408E518648094BD
:0508BC008040D680CB56
:10080C0002088CE493A3F8E493A34003F68001F26E
:10081C0008DFF48029E493A3F85407240CC8C333ED
:10082C00C4540F4420C8834004F456800146F6DFBC
:10083C00E4800B01020408102040809008C1E47E83
:10084C00019360BCA3FF543F30E509541FFEE493B1
:10085C00A360010ECF54C025E060A840B8E493A378
:10086C00FAE493A3F8E493A3C8C582C8CAC583CAA3
:10087C00F0A3C8C582C8CAC583CADFE9DEE780BE5B
:0108D5000022
:00000001FF
