:0608C1000109000108001E
:0908AF008509993099FDC29922D6
:10088C00759850758920758DFD758BFDD2ACD2AFE6
:03089C00D28E22D7
:10089F0012088CE508B401FB1208AFE4F50880F3E9
:030023000208B818
:0908B800859909C2987508013206
:03000000020800F3
:0C080000787FE4F6D8FD758109020847F6
:10080C0002089FE493A3F8E493A34003F68001F25B
:10081C0008DFF48029E493A3F85407240CC8C333ED
:10082C00C4540F4420C8834004F456800146F6DFBC
:10083C00E4800B01020408102040809008C1E47E83
:10084C00019360BCA3FF543F30E509541FFEE493B1
:10085C00A360010ECF54C025E060A840B8E493A378
:10086C00FAE493A3F8E493A3C8C582C8CAC583CAA3
:10087C00F0A3C8C582C8CAC583CADFE9DEE780BE5B
:0108C7000030
:00000001FF
